:02000004085F93
:10E0000000E05F08FCFF5F0800000600200005013B
:08E010000401B514000000003A
:10E018000E480F4908B5884205D00E4A824202D000
:10E028000D4B121A98470D480D4A00210D4B121A34
:10E0380098470D480D49884205D00D4A824202D0C2
:10E04800054B121A9847014808BD00BFE0AC0710FD
:10E0580090F85F08A0AE07102D0D1110A0AE0710A4
:10E06800E8AF0710A10E1110F0E73F0288E05F0843
:0CE078000000400219E05F0800000000FA
:08E088007CE05F081CF73F0279
:10E09000034613F8012B002AFBD1181A01387047E8
:10E0A00070B500F0DDFD0025054E064CA41BA4084C
:10E0B000AC4200D170BD56F8043B98470135F7E7F4
:10E0C000DCFF3F020000400200F013B808B500F08A
:10E0D00011F8BDE8084000F07BBD00F01DBA00F06B
:10E0E00029BA0078B0FA80F0400970470123037024
:10E0F0007047704770470000094B1A68094B02F1DE
:10E100003001C3F8DC1002F110015A60C3F8F410BA
:10E11000C3F80C21C3F82411C3F83C21704700BF99
:10E12000A0AE0710E4AC071009B504480068044B22
:10E1300003441B685B6C029309BD0000E0AC071050
:10E140003000000009B504480068044B03441B6814
:10E150005B68029309BD0000E0AC071000000000FE
:10E1600009B504480068044B03441B685B690293CB
:10E1700009BD0000E0AC07100000000009B504482C
:10E180000068044B03441B685B69029309BD0000EF
:10E19000E0AC07104C00000009B504480068044BCF
:10E1A00003441B689B68029309BD0000E0AC0710A4
:10E1B0005000000009B504480068044B03441B6884
:10E1C000DB68029309BD0000E0AC071050000000BE
:10E1D00009B504480068044B03441B68DB680293DC
:10E1E00009BD0000E0AC07102400000009B5044898
:10E1F0000068044B03441B681B69029309BD0000BF
:10E20000E0AC07102400000009B504480068044B86
:10E2100003441B685B69029309BD0000E0AC071072
:10E220002400000009B504480068044B03441B683F
:10E230009B69029309BD0000E0AC071024000000B8
:10E2400009B504480068044B03441B68DB6902936A
:10E2500009BD0000E0AC07102400000009B5044827
:10E260000068044B03441B681B6A029309BD00004D
:10E27000E0AC07102400000009B504480068044B16
:10E2800003441B689B6A029309BD0000E0AC0710C1
:10E290002400000009B504480068044B03441B68CF
:10E2A0001B6C029309BD0000E0AC071024000000C5
:10E2B00009B504480068044B03441B681B680293BB
:10E2C00009BD0000E0AC07103400000009B50448A7
:10E2D0000068044B03441B681B69029309BD0000DE
:10E2E000E0AC07103400000009B504480068044B96
:10E2F00003441B685B69029309BD0000E0AC071092
:10E300003400000009B504480068044B03441B684E
:10E310009B69029309BD0000E0AC071034000000C7
:10E3200009B504480068044B03441B68DB69029389
:10E3300009BD0000E0AC07103400000009B5044836
:10E340000068044B03441B681B6A029309BD00006C
:10E35000E0AC07103400000009B504480068044B25
:10E3600003441B685B68029309BD0000E0AC071022
:10E370000800000009B504480068044B03441B680A
:10E38000D3F88830029309BDE0AC07100800000004
:10E3900009B504480068044B03441B68D3F8943063
:10E3A000029309BDE0AC07100800000009B504485D
:10E3B0000068044B03441B68DB6B029309BD00003B
:10E3C000E0AC07102C00000009B504480068044BBD
:10E3D00003441B685B68029309BD0000E0AC0710B2
:10E3E0002800000009B504480068044B03441B687A
:10E3F0009B68029309BD0000E0AC071028000000F4
:10E4000009B504480068044B03441B68DB680293A9
:10E4100009BD0000E0AC07102800000009B5044861
:10E420000068044B03441B681B69029309BD00008C
:10E43000E0AC07102800000009B504480068044B50
:10E4400003441B685B69029309BD0000E0AC071040
:10E450002800000009B504480068044B03441B6809
:10E460009B69029309BD0000E0AC07102800000082
:10E4700009B504480068044B03441B68DB69029338
:10E4800009BD0000E0AC07102800000009B50448F1
:10E490000068044B03441B681B6A029309BD00001B
:10E4A000E0AC07102800000009B504480068044BE0
:10E4B00003441B681B6B029309BD0000E0AC07100E
:10E4C0002800000009B504480068044B03441B6899
:10E4D0005B6B029309BD0000E0AC07102800000050
:10E4E00009B504480068044B03441B681B6C029385
:10E4F00009BD0000E0AC07102800000009B5044881
:10E500000068044B03441B685B6C029309BD000068
:10E51000E0AC07102800000009B504480068044B6F
:10E5200003441B681B68029309BD0000E0AC0710A0
:10E530000400000009B504480068044B03441B684C
:10E540005B68029309BD0000E0AC07100400000006
:10E5500009B504480068044B03441B681B6C029314
:10E5600009BD0000E0AC07100400000009B5044834
:10E570000068044B03441B685B6C029309BD0000F8
:10E58000E0AC071004000000002302480360FFF71E
:10E59000CBBD00BFA4AE0710002240681146FFF7B4
:10E5A00075BF002240681146FFF78CBF002240680B
:10E5B000FFF77ABF0022406881F00101FFF758BFE2
:10E5C000002340681A461946FFF744BF00234068FD
:10E5D0001A461946FFF730BF002240681146FFF780
:10E5E0001DBF002240681146FFF7FCBE0022022139
:10E5F0004068FFF705BF002340681A46FFF7E4BEF6
:10E600000322024B5A60024A1A607047A8AE0710F4
:10E6100028FE3F02704710B504461821FFF75FFD42
:10E62000204610BDF0B5037D0E46062B4FF00004CA
:10E630008DB000F1040712D000F1080515F8011D96
:10E640000A22304600F043F9AF42044419D0002CAE
:10E65000F4D02E21304600F037F90444EEE72F23A2
:10E660006A4639460A208DF80040FFF787FD684664
:10E67000FFF70EFD3368024669463046DB6898476F
:10E68000044620460DB0F0BD10B50446044B1122DF
:10E69000002140F8043B00F0EAFB204610BD00BF1B
:10E6A00064FE3F020346074A10B543F8042B01F10C
:10E6B000100251F8044B914243F8044BF9D10A7807
:10E6C0001A7010BD64FE3F0210B59DF8084044EA80
:10E6D000032343EA0242042342EA016141600375D5
:10E6E00010BD000007B5064B0360CB7800938B7814
:10E6F0004A780978FFF7E8FF03B05DF804FB00BF34
:10E7000064FE3F02014B024A1A607047B0AE071028
:10E7100070FE3F02002340681A46FFF755BE0022F4
:10E7200002214068FFF76CBE002240681146FFF7E7
:10E7300059BE002240681146FFF770BE00234068B2
:10E740001A461946FFF778BE002340681A46194654
:10E75000FFF780BE00214068FFF7C2BE002140687D
:10E76000FFF7CCBE0022406881F00101FFF780BEB8
:10E7700000224068FFF798BE002240681146FFF76C
:10E78000A1BE002240681146FFF780BE2DE9F0438C
:10E7900095B014460D460746FFF776FF00211C2270
:10E7A0000DA8009100F063FB402320460C9300214C
:10E7B0006B460CAAFFF7FEFC044600284BD102462C
:10E7C00001216868FFF72AFE022180462246686818
:10E7D000FFF724FE21468146009E002E3BD00029F3
:10E7E00039D17368022B03D00A2B11D0F669F4E7F4
:10E7F000B8F1000FFAD0716906A804313C1D07ADCD
:10E80000FFF770FF0FCD0FC42B6841462370EDE773
:10E81000B9F1000FEAD0102201A8746900F027FBBB
:10E82000062301AD8DF8143004F1080318342A468C
:10E8300018685968083303C2A3421546F7D101A9E5
:10E8400006A83C1D07ADFFF72DFF0FCD0FC42B68A9
:10E8500049462370CAE70098FFF79EFC384615B07A
:10E86000BDE8F083024B034A1A6000225A607047E9
:10E87000B4AE07107CFE3F02F8B506460D460024F4
:10E880008F18BD420CD0336830469B6815F8011BC9
:10E890009847031E01DB1C44F3E7002C08BF1C460D
:10E8A0002046F8BD13B50446084659B10191FFF75B
:10E8B000EFFB0246204623680199DB6802B0BDE801
:10E8C0001040184702B010BD03689B68184700232A
:10E8D000012A98BF0A2230B58BB08DF8243009ACDC
:10E8E0000D46B1FBF2F101FB125303F0FF03092BBC
:10E8F00094BF30333733DBB2AA4204F8013DEFD97D
:10E900002146FFF7CFFF0BB030BD00000022014BC6
:10E910009A607047BCAE071002220020044B1A60B8
:10E92000044B054AC3E900009A60FFF715BD00BF1C
:10E93000D8AE0710CCAE07100000FFFF024B1A68DC
:10E94000024B1A60704700BF34AE0710DCAE0710F0
:10E9500070474174704708B5007CFFF78DFC20EAD2
:10E96000E07008BD08B5007CFFF740FC20EAE070CD
:10E9700008BD08B5007CFFF755FC40EAE07008BD13
:10E9800008B5007CFFF740FC40EAE07008BD007C61
:10E99000FFF756BC37B5457C04462DB1207C03B04B
:10E9A000BDE83040FFF714BC007C0191FFF764FC28
:10E9B00000280199F2DC284603B030BD10B50446AA
:10E9C0001421FFF78CFB204610BD000010B54FF45A
:10E9D0007A730446084611460022C4E90123044B19
:10E9E0002074236001236374FFF754FC204610BD9C
:10E9F000D4FE3F02007CFFF731BC41747047704782
:10EA0000704708B50021007CFFF77CFC40EAE0700D
:10EA100008BD08B50121007CFFF774FC40EAE070F6
:10EA200008BD08B5007CFFF75FFC20EAE07008BD78
:10EA300008B5007CFFF74AFC20EAE07008BD13B57A
:10EA40000446007C0191FFF74FFC0028019901DC8E
:10EA5000607C20B1207CFFF763FC20EAE07002B00C
:10EA600010BD007CFFF76ABC10B504461421FFF707
:10EA700036FB204610BD000010B54FF47A730446F3
:10EA800008460021C4E90113044B207423600123CC
:10EA900011466374FFF70CFC204610BD04FF3F02D3
:10EAA00010B504461422002100F0E1F9204610BD03
:10EAB00010B588B003A8FFF7F3FF0C4CD4E88F1F04
:10EAC00011F001010FD120460191FFF70AFB0199D6
:10EAD00048B103AA0648FFF7CFFF2046FFF706FB21
:10EAE000044800F0B1F9024808B010BDE0AE0710CC
:10EAF000E4AE07106FF13F02002240681146FFF7B5
:10EB00008DBC002240681146FFF7C0BC002240685F
:10EB10001146FFF7D7BC00224068FFF7C5BC0022B2
:10EB2000406881F00101FFF7A3BC002340681A464A
:10EB30001946FFF78FBC002340681A461946FFF7B5
:10EB40007BBC002240681146FFF74CBC002202212A
:10EB50004068FFF755BC002340681A46FFF734BCF5
:10EB60000422024B5A60024A1A607047F8AE07103E
:10EB700034FF3F02014B1860704700BF38AE0710EA
:10EB800008B50F4B43B1FFF793FF03681B69984724
:10EB9000002801DD00E000BF0A4B43B100F0C2F8DD
:10EBA00003681B699847002801DD00E000BF064BA1
:10EBB0000BB100F0FDF8054B0BB100F02FF908BDCB
:10EBC0000000000000000000000000000000000045
:10EBD00008B5FFF7D5FFFFF7C3FA014B186008BD72
:10EBE00008AF07100548064A08B5121A054900F093
:10EBF00031F9054B054A1A6008BD00BF00B4071083
:10EC000004B4071050FA5F0800B407101E1C279ABE
:10EC1000002307B51A466FF077010093FFF7B8FBA2
:10EC200003B05DF804FB000007B543880A2B08D049
:10EC3000502B0BD1094B1B684BB103B05DF804EBB3
:10EC40001847FFF7E5FF03B05DF804FB00231A4601
:10EC50006FF077010093FFF79BFBF4E704AF071019
:10EC6000002110B51148FFF781FC114B1A68114BB8
:10EC70009A420CBF012200220F4B1A7001D0FFF7FD
:10EC8000B1FFFFF75FFA044600F0FAF80B4B13B13F
:10EC9000204600E000BF00210848FFF787FBBDE8E1
:10ECA000104000210648FFF765BB00BFE5F23F02B8
:10ECB00000B407101E1C279A00AF071000000000C8
:10ECC00099F33F027047000038B5142504462A46E0
:10ECD000002100F0CCF825804025074928462581F1
:10ECE000258200F0AFF804496060284600F0AAF8D9
:10ECF000E060204638BD00BF68FF3F0270477047A4
:10ED000010B50446FFF7E0FF204610BD10B50446DD
:10ED1000FFF7DAFF204610BD10B50446FFF7D4FF19
:10ED2000204610BD30B50E4D87B0D5E88F1F11F0CD
:10ED3000010411D12846FFF7D4F968B101A8FFF703
:10ED4000DFFF214601AA0748FFF740FE2846FFF7EC
:10ED5000CDF9054800F078F8024807B030BD00BF93
:10ED60000CAF071018AF071035F43F0210B50D4C6B
:10ED700086B0D4E88F3FDB0711D42046FFF7B1F906
:10ED800068B101A8FFF7C2FF012101AA0648FFF7F9
:10ED90001DFE2046FFF7AAF9044800F055F8024886
:10EDA00006B010BD10AF07102CAF07106FF43F0274
:10EDB00010B5FFF7DBFF074B044653B1FFF71AFE10
:10EDC00038B1236820461B699847002801DD00E020
:10EDD00000BF10BD0000000010B50D4C86B0D4E897
:10EDE0008F3FDB0711D42046FFF77BF968B101A8FC
:10EDF000FFF792FF022101AA0648FFF7E7FD204630
:10EE0000FFF774F9044800F01FF8024806B010BD7F
:10EE100014AF071040AF07106DF43F0210B5FFF7B5
:10EE2000DBFF074B044653B1FFF7E4FD38B123681D
:10EE300020461B699847002801DD00E000BF10BD97
:10EE400000000000FFF749B9002301461A461846A2
:10EE500000F044B80A44431E914200D1704710B5F7
:10EE600011F8014B914203F8014FF9D110BD024452
:10EE70000346934200D1704703F8011BF9E70000F5
:10EE800038B5104B04461D68AB6BB3B91820FFF7BB
:10EE900043FB0246A86320B90B4B42210B48FFF706
:10EEA00057FB0B490B4BC0E900130B4B0021836050
:10EEB0000B2383810120C2E90401AB6B00221C619A
:10EEC0005A6138BD38AE071069FF3F0280FF3F022C
:10EED0000E33CDAB34126DE6ECDE05002DE9F843C0
:10EEE000DFF8BC8006461F460D46D8F80000914664
:10EEF00000F058F8264B1C6834B9264C1C60264B91
:10EF000013B11B68C4F8883063681F2B07DDD8F87D
:10EF1000000000F049F84FF0FF30BDE8F8835EB321
:10EF2000D4F8880088B91D4B23B9D8F8000000F048
:10EF30003AF8F0E74FF48470FFF7EEFA0028F4D0C7
:10EF40000023C0E94033C4F8880063680122022E20
:10EF500040F8239002FA03F200EB8301D0F800316D
:10EF600043EA0203C0F80031C1F8807002BFD0F854
:10EF700004311343C0F804316368D8F800005A1C08
:10EF80000233626044F8235000F00EF80020C4E71A
:10EF9000E0AF071054AF07100000000089EC3F02FB
:10EFA0009CAE0710704770477047000011E83F02A1
:10EFB00039E83F023DE83F02000000000100000088
:10EFC000B8FFFFFF0100000000000000010000008A
:10EFD000000000000100000000000000010000002F
:10EFE000000000000100000000000000010000001F
:10EFF000000000000100000000000000010000000F
:10F00000000000000100000080FFFFFF0100000081
:10F01000A305CF3D0100000080FFFFFF01000000BD
:10F0200080FFFFFF010000002B0000000100000036
:10F0300080FFFFFF010000003BAC943B010000009B
:10F040001375F039010000003655BF3B0100000088
:10F0500009E9F539010000007D07D83B01000000F7
:10F060002127073A01000000A31CF53B0100000026
:10F070004E62133A010000000783A43D0000000027
:10F08000C6E1C9210618D6D6D5173FD1EB2C2D44A1
:10F0900033D71DB71F9970EBB9FFE2440809F7E5B4
:10F0A0003106191BD1FB2F1723AB150BD20CDFC078
:10F0B000CCCDAB1906E0BDC6DC1ED51121D7023878
:10F0C00040B4EFCFC2280318C4FACE18F2F5E4D04A
:10F0D0003AC7D5F645BC36F4F540CA5712EDFDD80F
:10F0E000D944DE98F5BC312826DF1C195417D3000B
:10F0F000FF2CF607085B3EC9E65AE8045817FF4D97
:10F10000211B542AFA1CDB260F38BED9040C0EFD35
:10F1100001FDB9F4D3D60601FFD4E0FC0FDA3B1AA7
:10F1200040FD04DADF3FDBE9FD0C26202710D6EF97
:10F13000C12CFE2406D9102B37D2BBDCDFE20EFC3B
:10F14000CF1001082BE9C433FDE1EC1614F0EA30CE
:10F15000DACB9CDB4726083723012A1C3F9A37FE6F
:10F16000E0121CF830FBE10337D2E3B837FDAF2ED5
:10F17000BA22F9C8E8CFEFF5BCFAE0DFBCCDDD027A
:10F18000D344272B44D04ED0440338C6372AF4FC4E
:10F1900036CCB639120DA2CC01E525F1E3D5EDCD83
:10F1A000F435C30C39FFDD0DB6F810132ECB07056F
:10F1B000EF30FD0CE4E0050AE5184540CA32D4F111
:10F1C0004932BAD8C3301AB605EAC1B2D4B733D679
:10F1D00006ECF820F4381358E9BCC520DCEACBF67D
:10F1E00032AAF51ACE2B1DC84AF6BA550C0BF30CF1
:10F1F0004712314140EE2FF8EAC81F07232C2E1A80
:10F20000DAF5E64EC3F038D533C621C90D3618C934
:10F2100028DB05D2E735EADCD2453DB31DF8B5E978
:10F22000B5EA4FEDD600D22148F240F8F81223D4C7
:10F23000441800330118404E6037BE1D1DE5EF3104
:10F2400052D4EF2429814A2F143FD9AB3A08C9C3BD
:10F2500053CD13D7151DF7D5B3E4CAF8F7E5C9CFD9
:10F26000D1C5000FD71A3201C8F4DF0209FA2ECA3D
:10F2700041EA0CE133C6CCE729BF1EDFFA3FC1F2F9
:10F280002A252B0BDA08B8EFDF2311FEFEB3BBB43F
:10F29000C03D211E0F100AEE082A16DCCAAFE9365F
:10F2A0004635D408EDD0F7253233031C59541B0CD6
:10F2B0001BD9F9C2B73CD7012AD3010B22FCF7F5C1
:10F2C000F410FFE149CD0321A657F1CB462D292F9C
:10F2D0001211BAF8305337280BD9E7FBC7EC40E5D9
:10F2E0000241F104D9003BC61164B7EA4D041B0288
:10F2F0003126530A18253E2A1619D859580546E9C9
:10F30000EA4D2E26CF2507FA383AC923440346BFD3
:10F31000B6B6C43E0000000000000000000000007F
:10F32000F20000001D000000A80000000001000025
:10F33000D0FFFFFF6EFFFFFF46000000A2000000AD
:10F34000EFFFFFFFCBFFFFFF6B000000F5FFFFFFAC
:10F350002D0000009E0000002C0000009CFFFFFF1D
:10F36000B800000002000000EC0000006700000090
:10F37000FB0851273CC7E32CA4B8FBD5595CF60A1F
:10F38000E1F61A24CE06DB190D0430D7E2C906C413
:10F39000EBE7C1BFDE2B20BEC93111D237FE17DC2F
:10F3A0003E34D2D71CBA14EEEA41BEE4D609D3E704
:10F3B000FD1A454749DA4C1F11CD014723271CD7B9
:10F3C0000502D8BAB735E0FCCF43FBB0BA0CF00960
:10F3D00007BA3E0A223DB8FCD10C02E57FB9AD5F09
:10F3E000C52DDF39AAFFA7355BDF2D7821D32E1776
:10F3F0000241DE1FCCF4EDE53C0036EBE55ECFA923
:10F40000F3F7F4D36545474205F500E1DB1BE71C44
:10F41000AC39D11447F840C8F8C71933333DFC1D47
:10F42000CB57D5F7DB02DC3AC13243C92EE2E029E3
:10F43000B2E4B8075147D74F0000000000000000B9
:10F4400034010000CFFFFFFFAFFFFFFF7E00000091
:10F450007DFFFFFF460000008A000000DCFFFFFF89
:10F4600086FFFFFF1A0000000000000000000000FF
:10F47000E6C9F2F220B103BCC5C72B2C2ACEBA4094
:10F48000021DF2EA8A2113F5485238120F59B22AA6
:10F490000947CF4709FE31DC2533BAFCF39C479876
:10F4A000DFE7FBFC32A2D718A4063921A303192DEC
:10F4B000173B4D4315082B160162C1BCDAEE4B29F0
:10F4C000EC1F1DE1CF2BD641C7AB75FAD03ACADD90
:10F4D0007FA9096700000000000000000000000094
:10F4E00047000000950000005CFFFFFFD7FFFFFF13
:10F4F000160100008C00000072FFFFFF8CFFFFFF71
:10F50000AA000000E9000000000000000000000068
:10F510001B0FA7D3CD983C4A64B3DF8105AE899B0E
:10F520001519F1F9CD14B5BA34BAAF0704FD1F5C53
:10F530002DC0071EE6CFBE970000000000000000AF
:10F54000EDFEFFFF34FFFFFF60010000FFFFFFFF44
:10F5500001000000D228A03D0100000053EE993DBB
:10F56000010000003C98D63D010000000000803BF7
:10F570000200000001000000210000000200000065
:10F580001400000021000000010000001400000031
:10F59000020000000A00000014000000010000004A
:10F5A0000A000000020000000A0000000A0000003B
:10F5B000010000000A00000002000000040000003A
:10F5C0000A0000000100000004000000020000002A
:10F5D0000100000014000000020000000100000013
:10F5E0000A00000002000000010000000A00000004
:10F5F0000200000001000000040000000200000002
:10F6000001000000040000007CF73F022CF73F02DD
:10F6100000000000A4F73F0234F73F0200000000A2
:10F62000ACF73F023CF73F0200000000B4F73F0296
:10F6300044F73F0200000000BCF73F024CF73F02D6
:10F6400000000000C4F73F0254F73F020000000032
:10F65000CCF73F025CF73F0200000000D4F73F0206
:10F6600064F73F0200000000DCF73F026CF73F0246
:10F6700000000000E4F73F0274F73F0200000000C2
:10F68000C0FC3F0284F73F0200000000C8FC3F02BC
:10F690008CF73F0200000000D0FC3F0294F73F02CD
:10F6A00000000000D8FC3F029CF73F020000000071
:10F6B000000000000000000067ED3F025DED3F022A
:10F6C00053ED3F0249ED3F023DED3F0231ED3F0278
:10F6D000C5EE3F02CDEE3F0225ED3F021DED3F029C
:10F6E00013ED3F0209ED3F02FDEE3F020000000076
:10F6F0000000000095ED3F0285ED3F0287ED3F02DF
:10F7000061707000000000000000000085EE3F0204
:10F710008FEE3F0299EE3F02A3EE3F02ADEE3F02B5
:10F72000B9EE3F02C5EE3F02CDEE3F02D5EE3F02FD
:10F73000E1EE3F02E9EE3F02F3EE3F02FDEE3F0253
:10F7400025592D256D2D25645425483A254D3A25FA
:10F7500053257A0061736374696D650000000000D1
:10F7600000000000C1F03F022DF13F0205F13F0211
:10F77000E9EF3F02D5F03F02F1F03F02E3F03F0234
:10F78000FFF03F02C3F03F02C7F03F02000000005D
:10F790000000000071F13F02D9F13F02AFF13F02DA
:10F7A000E9EF3F02A1F13F0273F13F0283F13F0213
:10F7B000D3F13F0293F13F026BF13F0200000000E2
:10F7C00000000000C7F23F02BDF23F02B3F23F0269
:10F7D00069F23F02A7F23F029BF23F02C5EE3F02F1
:10F7E000CDEE3F028FF23F0287F23F027DF23F02F1
:10F7F00073F23F02FDEE3F02005245454E54206D2C
:10F80000616C6C6F63207375636365656465640028
:10F810002F746D702F6A656E6B696E732D4743434D
:10F820002D31302D706970656C696E652D34385FCF
:10F8300032303230313132345F3136303631383077
:10F840003633392F7372632F6E65776C69622F6E52
:10F8500065776C69622F6C6962632F7374646C697D
:10F86000622F72616E642E630000000069E83F023F
:10F87000F9EC3F0271ED3F0275EE3F02D5EF3F021A
:10F880007DF03F0289F03F02ADF03F02D1F23F022E
:10F89000000000020209000000000000E0FC3F023E
:10F8A000210000000100000078FD3F020109000076
:10F8B000F0F73F02ECFC3F02940200000100000060
:10F8C00084FD3F020102000090FA3F02F8FC3F0273
:10F8D000500000000100000090FD3F0201090000FF
:10F8E000E0FA3F0200FD3F02C800000001000000F6
:10F8F0009CFD3F0201020000B0FB3F020CFD3F02F5
:10F900002800000001000000A8FD3F0201090000DE
:10F91000E0FB3F0214FD3F02640000000100000014
:10F92000B4FD3F020102000050FC3F0220FD3F02F7
:10F930002800000001000000C0FD3F020109000096
:10F9400080FC3F0228FD3F0228000000010000006B
:10F95000CCFD3F0201020000B0FC3F0234FD3F023B
:10F960001000000001000000D8FD3F020209000065
:10F97000000000003CFD3F021400000001000000F8
:10F98000E4FD3F02020900000000000048FD3F02C4
:10F990000A00000001000000F0FD3F020209000023
:10F9A0000000000054FD3F020A00000001000000BA
:10F9B000FCFD3F02020900000000000060FD3F0264
:10F9C000040000000100000008FE3F0202090000E0
:10F9D000000000006CFD3F02040000000100000078
:10F9E00014FE3F02C4FE3F023CAE071000000000C0
:10F9F0000000000000000000000000000000000007
:10FA000000000000000000000000000000000000F6
:10FA100000000000000000000000000000000000E6
:10FA200000000000000000000000000000000000D6
:10FA300000000000000000000000000000000000C6
:10FA4000000000000000000000000000E4AF07100C
:04FA500000000000B2
:10FFBE000200100000E05F0888E05F08F0E73F02F3
:10FFCE0001000A00FFFFFFFFFFFF00000102030414
:10FFDE0005060708090A0B0C0D0E0F10111213144B
:0EFFEE0015161718191A1B1C1D1E1F203E0089
:04FFFC0078563412ED
:04000005085FE01898
:00000001FF
